:020000040800F2
:10000000F8600020E9020008194900087B30000868
:10001000C146000821060008AD4D000800000000A0
:10002000000000000000000000000000290200089D
:10003000CD0F00080000000085020008CD4B00082D
:100040000303000803030008030300080303000878
:100050000303000803030008311000083F100008E4
:100060000303000803030008030300080303000858
:10007000030300082D0F0008030300080303000812
:100080000303000803030008030300088D060008AB
:10009000690600087506000881060008451000087A
:1000A00003030008894C0008030300080303000849
:1000B0000303000803030008030300080303000808
:1000C0000303000845310008393100080303000824
:1000D00003030008030300080303000803030008E8
:1000E0003710000803030008030300080303000897
:1000F000030300080303000803030008390F000886
:1001000003030008030300080303000803030008B7
:100110000303000803030008954C000803030008CC
:10012000450F000803030008030300080303000849
:1001300003030008000000000000000003030008A3
:100140000303000803030008030300080303000877
:100150000303000803030008030300080303000867
:100160000303000803030008030300080303000857
:100170000303000803030008000000000000000063
:10018000030300080303000800F002F800F03CF845
:100190000AA090E8000C82448344AAF10107DA45E2
:1001A00001D100F031F8AFF2090EBAE80F0013F0F8
:1001B000010F18BFFB1A43F0010318476C6F0000D2
:1001C0008C6F0000103A24BF78C878C1FAD8520763
:1001D00024BF30C830C144BF04680C6070470000C1
:1001E0000023002400250026103A28BF78C1FBD840
:1001F000520728BF30C148BF0B6070471FB506F0DB
:10020000B7FD1FBD10B510BD00F0D5F91146FFF7C1
:10021000F5FF04F01FFE00F0F3F903B4FFF7F2FF5F
:1002200003BC00F0F7F900002C4B19680868B0E82F
:10023000F04F80F30988BFF36F8F4FF0000080F319
:10024000118870470000000008480068006880F3CB
:1002500008884FF0000080F3148862B661B6BFF3DF
:100260004F8FBFF36F8F00DF00BF00BF08ED00E0CE
:10027000DFF80C00016841F470010160704700BFB5
:1002800088ED00E0EFF30980BFF36F8F134B1A681E
:100290001EF0100F08BF20ED108A20E9F04F10600B
:1002A00009B44FF0500080F31188BFF34F8FBFF3B4
:1002B0006F8F05F049FE4FF0000080F3118809BCF4
:1002C00019680868B0E8F04F1EF0100F08BFB0ECD6
:1002D000108A80F30988BFF36F8F70476800002091
:1002E000EFF3058070470000094880470948004740
:1002F000FEE7FEE7FEE7FEE7FEE7FEE7FEE7FEE7D6
:10030000FEE7FEE704480549054A064B7047000032
:10031000794C000889010008F85A0020F860002094
:10032000F85C0020F85C002053EA020C00F06980C1
:100330002DE9F04B4FF00006002B1FBFB3FA83F5F9
:1003400003FA05F424FA05F65E4012BF1643B2FA2A
:1003500082F502FA05F4C5F120051EBF22FA05FC5C
:1003600044EA0C04203556EA044C4FEA144418BF02
:10037000641C4FF000084FF00009904271EB030C31
:1003800039D3002919BFB1FA81F701FA07F6B0FA9B
:1003900080F700FA07F6C7F120071EBF20FA07FC16
:1003A00046EA0C062037B6FBF4FCA7EB0507103F26
:1003B00007F01F0BCBF120060CFA0BFB2CFA06F60C
:1003C00044BFB3460026202FA4BF5E464FF0000B6B
:1003D0005BEA060C08BF4FF0010B19EB0B09ABFBF6
:1003E000027C48EB0608C01B06FB02CC0BFB03CCCF
:1003F00071EB0C01C1E70B46024641464846BDE899
:10040000F08B13B54FF000004FF00001AFF3008008
:10041000BDE81C407047032A40F2308010F0030C06
:1004200000F0158011F8013BBCF1020F624498BF47
:1004300011F801CB00F8013B38BF11F8013BA2F1E4
:10044000040298BF00F801CB38BF00F8013B11F05F
:10045000030300F02580083AC0F0088051F8043BFF
:10046000083A51F804CBA0E80810F5E7121D5CBF6C
:1004700051F8043B40F8043BAFF30080D20724BF9F
:1004800011F8013B11F801CB48BF11F8012B24BF33
:1004900000F8013B00F801CB48BF00F8012B704782
:1004A00010B5203AC0F00B80B1E81850203AA0E80F
:1004B0001850B1E81850A0E81850BFF4F5AF5FEA43
:1004C000027C24BFB1E81850A0E8185044BF18C9F6
:1004D00018C0BDE810405FEA827C24BF51F8043B9D
:1004E00040F8043B08BF7047D20728BF31F8023BF1
:1004F00048BF11F8012B28BF20F8023B48BF00F885
:10050000012B704702F0FF0343EA032242EA024252
:1005100000F02CB84FF0000200B513469446964602
:10052000203922BFA0E80C50A0E80C50B1F1200106
:10053000BFF4F7AF090728BFA0E80C5048BF0CC0B4
:100540005DF804EB890028BF40F8042B08BF704712
:1005500048BF20F8022B11F0804F18BF00F8012B84
:1005600070477047704770474FF000020429C0F091
:10057000128010F0030C3FF4CFAFCCF1040CBCF1AF
:10058000020F18BF00F8012BA8BF20F8022BA1EB27
:100590000C01FFF7C1BF5FEAC17C24BF00F8012B4B
:1005A00000F8012B48BF00F8012B70470048704746
:1005B000985A002070477546FFF7F8FFAE460500D1
:1005C0006946534620F00700854618B020B5FFF76E
:1005D00099FEBDE820404FF000064FF000074FF0B5
:1005E00000084FF0000B21F00701AC46ACE8C00951
:1005F000ACE8C009ACE8C009ACE8C0098D4670475A
:1006000010B50446AFF300802046BDE81040FFF768
:1006100004BE000001491820ABBEFEE72600020020
:10062000FEE700000E4E0F4C4FF4807500274FF48C
:10063000FA78A07880B12946304601F067FC58B9B5
:10064000642004F025FD2946304601F05FFC18B90E
:10065000A770404604F01CFD0A2004F019FDE8E7ED
:100660000008024090030020014800F0C8BF0000CD
:100670002C010020014800F0C2BF00002C01002026
:10068000014800F0BCBF00002C010020014800F030
:10069000B6BF00002C0100207A497022A1F1700041
:1006A000FFF7FEFE7848774C4FF00008703CC0F82A
:1006B000448094F8456094F84450DFF8D0A1474650
:1006C000834604F1E009BBF80000DC4640B16E4807
:1006D0005030007801281AD089F80080ACF80080EA
:1006E000DCF8440030B3674B67497033A3F1E00294
:1006F000503103F087FCDBF8440008B189F85A80D8
:10070000CBF8448094F82000012804D007E00121B0
:1007100089F80010E2E789F8028084F8208094F8D4
:100720002400012806D158495046483100F0B0F85D
:1007300084F82480E07F012836D14F2004F0F6F9B8
:1007400089F82F005B2004F0F1F989F82E0055207C
:1007500004F0C4F9A9F82C00612004F0BFF9A9F84D
:100760002A00484B484949487033A3F1E002483118
:10077000401C03F0A7FF444944484831401C00F0A6
:1007800087F8404B40497033A3F1E00248315046AE
:1007900003F098FF3C495046483100F079F884F85E
:1007A0001F800A2004F074FCA07F012831D1354B52
:1007B000354936487033A3F1E0024831801C03F01C
:1007C00081FF314931484831801C00F061F82D4BE0
:1007D0002D492E487033A3F1E0024831C01C03F0CC
:1007E00071FF294929484831C01C00F051F8254BB8
:1007F000254926487033A3F1E0024831001D03F07B
:1008000061FF214921484831001D00F041F884F87A
:100810001E8099F85C00B84210D01A4B1A49703308
:10082000A3F1E00248315746504603F04BFF16490A
:100830003846483100F02CF899F85C7094F845007F
:10084000B04201D0012200E0002294F84410A942F5
:1008500001D0012300E000231A430FD0094B0646C4
:1008600070330D46A3F1E002A2F10C01504603F0F3
:1008700029FF044950467C3900F00AF8012004F0B1
:1008800007FC20E720030020000000204500B10302
:1008900010B50B4B0C465860082018610020D8603A
:1008A00004209860074800F094FE002807D02246F4
:1008B000BDE8104000230249024800F02BBD10BDE6
:1008C000A80D00202C0100200E4C0420A070252033
:1008D00004F014F960632B2004F010F9A0633120B8
:1008E00004F00CF9E063372004F008F920640120DB
:1008F00084F85100034800F007F8012004F0C8FB19
:10090000F8E70000900300202DE9F05F04462DED8C
:10091000028B8078042870D04FF480514FF4005A35
:100920004FF4804BFD4EFE4D002867D09FEDFD8AB1
:100930006FF01307012816D002287DD003285CD160
:1009400094ED030AD4ED070AB4EEE00AF1EE10FAD2
:1009500053DB304601F0DAFA002894F85B006CD0E3
:1009600000F00E0092E094ED030AD4ED050AB4EE17
:10097000E00AF1EE10FA40DD304601F0C7FA002837
:1009800094F85B0036D000F00E0000BF84F85B00E6
:100990005146304601F0BAFA002894F85B002ED098
:1009A00000F00D0084F85B005946304601F0AEFAC5
:1009B000002894F85B0025D000F00B0084F85B0061
:1009C0004FF40041304601F0A1FA002894F85B0092
:1009D0001BD000F0070000BF84F85B00204603F046
:1009E000E3FF142004F054FB0121284601F08EFAA5
:1009F00070B113E040F00100C8E74FE1BEE040F005
:100A00000200CFE740F00400D8E740F00800E3E739
:100A100094F85C0040F0010084F85C000221284654
:100A200001F074FA28B994F85C0040F0020084F8F0
:100A30005C000421284601E021E025E001F066FA8F
:100A400028B994F85C0040F0040084F85C000821A8
:100A5000284601F05BFA28B994F85C0040F00800E1
:100A600084F85C0084ED038A94F8500000EBC00128
:100A700001EB001007EB800004F00AFB62E094ED4C
:100A8000030AD4ED060A5FE740F0010084F85B003A
:100A90005146304601F03AFA002894F85B0058D0ED
:100AA00000F00D0084F85B005946304601F02EFA44
:100AB000002894F85B0002D000F00B0001E040F049
:100AC000040084F85B004FF40041304601F01EFA48
:100AD000002894F85B0040D000F0070084F85B0029
:100AE000204603F061FF142004F0D2FA01212846C9
:100AF00001F00CFA80B30221284601F007FA28B968
:100B000094F85C0040F0020084F85C000421284660
:100B100001F0FCF958B30821284601F0F7F928B98B
:100B200094F85C0040F0080084F85C0094F85000F1
:100B300000EBC00101EB001007EB800004F0A8FA05
:100B400084ED038A2046BDEC028BBDE8F05F03F024
:100B5000E5BE40F00200A5E702E040F00800BDE776
:100B600094F85C0040F0010084F85C00C3E794F85E
:100B70005C0040F0040084F85C00CCE794F85D0071
:100B80004FF004094FF4FA68F0B300274FF4004A1D
:100B90004FF48051304601F0B9F9002894F85B0019
:100BA00038D000F00E0000BF84F85B004FF4005115
:100BB000304601F0ABF9002894F85B002DD000F02E
:100BC0000D0000BF84F85B005946304601F09EF9E5
:100BD000002894F85B0023D000F00B0084F85B0041
:100BE0005146304601F092F9002894F85B001AD083
:100BF00000F0070084F85B00204603F0D5FE1420C7
:100C000004F046FA012100E04CE0284601F07EF9AC
:100C100060B111E040F00100C6E740F00200D1E70A
:100C200040F00400DAE740F00800E3E794F85C00E5
:100C300040F0010084F85C000221284601F066F9CA
:100C400028B994F85C0040F0020084F85C000421AC
:100C5000284601F05BF928B994F85C0040F00400E4
:100C600084F85C000821284601F050F928B994F86E
:100C70005C0040F0080084F85C0040F2BC7004F0B6
:100C800007FA204603F04AFE404604F001FA7F1CB2
:100C9000032FFFF67DAF00BF84F80290BDEC028BFE
:100CA000BDE8F09F204603F039FE012210212846BE
:100CB00001F031F91C4F01221146384601F02BF9A1
:100CC00001220221384601F026F94646404604F04A
:100CD000DFF900221021284601F01DF90022012130
:100CE000384601F018F900220221384601F013F9C4
:100CF000304604F0CDF901221021284601F00BF90D
:100D000001221146384601F006F901220221384637
:100D100001F001F9304604F0BBF907E0000402409D
:100D200000080240000000000000024000221021E4
:100D3000284601F0F0F800220121384601F0EBF8D6
:100D400000220221384601F0E6F8304604F0A0F90E
:100D500001221021284601F0DEF801221146384612
:100D600001F0D9F801220221384601F0D4F83046CA
:100D700004F08EF900221021284601F0CCF8002260
:100D80000121384601F0C7F800220221384601F05F
:100D9000C2F881E7564C04264FF00008A67084F88C
:100DA00003809FED540A84ED050A9FED530A84EDFC
:100DB000060A9FED520A84ED070A9FED510A84ED61
:100DC000020AB1EE040A84ED080A9FED4E0ADFF82C
:100DD00038A184ED090A84F850604FF00109A4F1AC
:100DE000E0054FF4806B00BF4FF40061574650465A
:100DF00001F08CF8012808D085F845806078A0B310
:100E0000E17829B1012931D044E085F845905AE0D4
:100E100094ED020AD4ED080AB4EEE00AF1EE10FAFD
:100E200011DDD4ED090AB4EEE00AF1EE10FA0AD2AF
:100E30002178012907D195F8211021B995F82210C0
:100E400009B984F80290D4ED090AB4EEE00AF1EE93
:100E500010FA1FDD217801291CD195F82110C9B99C
:100E600095F82210B1B9022113E022E094ED020AB4
:100E7000D4ED080AB4EEE00AF1EE10FA0ADD2178AA
:100E8000012907D195F8211021B995F8221009B947
:100E90000321A17094ED020AD4ED080AB4EEE00A31
:100EA000F1EE10FA03D22178012900D1A6700128B1
:100EB00000D0A670207800B9A67095F8210010B96E
:100EC00095F8220000B1A670BA464F4659465046E2
:100ED00001F01CF8012808D085F84480C82004F0EF
:100EE000D7F8A0780028F1D07EE785F84470F5E7C0
:100EF000900300200000C8420000964300004843D1
:100F00000000000000005C420008024010B50246EC
:100F1000FF20054B04E000BF12F8014B4440185D70
:100F2000491EC9B2F8D210BD846D0008014800F016
:100F3000ADBD0000C00D0020014800F0A7BD0000BD
:100F4000200E0020014800F0A1BD00004402002056
:100F500001681823CAB2103AB2FBF3F2054B6FF3E3
:100F60000901032A9B5CC36500D9091D81650846F8
:100F7000704700003070000810B5014600208B69F2
:100F80008A6A4FF0C07453B1B3F5005F15D072B1E7
:100F9000012A0CD0022A0AD0032A09D104E01AB18E
:100FA000012A06D0022A03D1C96AC90100D501204D
:100FB00010BDC96AA142FAD010BD002AF7D0012A9B
:100FC000F2D0022AF3D0032AF3D010BD70470000FC
:100FD00010B504002DED028B15D0084605F09FFDDD
:100FE00041EC180B204605F0B1FD9FED081B53ECBA
:100FF000112B05F0BFFD53EC182B05F0BBFD05F0E0
:101000002FFD00EE100ABDEC028B10BDD9CEF753B8
:10101000E3A59B3F00B58BB01E236A461F21034802
:1010200000F016F80028F7D10BB000BD54010020E5
:10103000012000F067BE4FF4806000F063BE022024
:1010400000F060BE4FF4007000F05CBE72B6FEE7C8
:101050002DE9F04F85B01E46154689460446B1F588
:10106000803F02D3A221A32001E0A021A12082463B
:1010700094F83D00202879D120688069C04380071A
:1010800074D594F83C00012870D0012084F83C000D
:10109000212084F83D00002727640122204602F029
:1010A000A9FAE8BB2068BB464169806900904FEA15
:1010B00019208DF808008DF809904FF002080DF105
:1010C0000809012300227749204602F0FBFD002891
:1010D00076D1216819F807200A612168A8F1010872
:1010E0004A697F1CD243520708D4B8F1000F08D0D8
:1010F00019F807000861A8F101087F1CB8F1000F7A
:10110000DFD1012300226749204602F0DBFD0028E1
:10111000DED1222084F83D005F46C4F840B000E0F4
:1011200005E001225146204601F0A8FF40B1206CA5
:1011300084F83C70042843D1012005B0BDE8F08F4D
:10114000DFF86091012EA9F1400910D02068DFF886
:101150005481022E0168A8F17C0816D041F4806108
:101160000160206841698069009081E097E0206813
:10117000016821F480610160206841698169009102
:10118000016841F4007101601BE021F4806101609D
:101190002068016841F4006101602068416980694C
:1011A000009019E0032E4CD8012E0AD0022E13D045
:1011B000012300224146204602F084FD00B91EE0D2
:1011C0003EE0012300224946204602F07BFDB8BBE9
:1011D0002068006928704DE0012300224146204626
:1011E00002F070FD60BB2068016841F4007101608D
:1011F0002068006928702068006968703AE02068FB
:10120000016821F4806101602068006905F8010B24
:10121000761EB6B2012300224146204602F052FD5E
:1012200070B92068016841F40071016020680069AC
:1012300005F8010B2068006905F8010BB61E16E0E1
:1012400024E0012300224946204602F03BFDE8B994
:101250002068006905F8010B2068761EB6B2416966
:10126000C943490704D4006905F8010B761EB6B2DC
:10127000002E97D12068016821F4006101600123EC
:101280001A460949204602F01DFD08B1032054E723
:10129000202084F83D0084F83C7000204DE70220B7
:1012A0004BE70000800001000200100070B58AB01A
:1012B000B1F5803F01D3A22400E0A0240D0A8DF8EF
:1012C00004508DF80510022101AD9B1C05E0561855
:1012D00016F8026C6E54491C89B29942F7D3012169
:1012E00000919BB22A46214601F070F80AB070BD09
:1012F00090F82020012A07D0022A05D0416A41F443
:101300008021416201207047006842690A434261BE
:1013100000207047F0B590F820500468A468012DB3
:1013200005D0022D03D0416A41F4802153E014F02E
:10133000406F01D1E5004BD5C4F30164022C03D901
:10134000416A41F4000146E00125A5401D608D6819
:101350004FF4C0739DB1CE6835434E6845EAC6056B
:10136000066803EB0417F5514FF4C275076805EBE7
:1013700004150E697E51097D012905D009E00E880A
:10138000CD6845EA4655EBE701684E5946F480764C
:101390004E511179D2F805504FF4C67641EA052531
:1013A000016806EB04168D511178D2F801204FF434
:1013B000C47541EA0221026805EB04155151006829
:1013C00003EB0411425842F0010242500020F0BDEC
:1013D000416A41F4001141620120F0BD10B590F85E
:1013E0002020012A07D0022A05D0416A41F4802139
:1013F0004162012010BD3B48D0F8002242F00102BA
:10140000C0F80022D0F8002222F47C52C0F800225A
:10141000D0F800224B6A42EA0322C0F800220A7D7B
:1014200002F01F0301229A40D0F81C329343C0F807
:101430001C32CB69B3B9D0F80C329343C0F80C32EC
:101440008C894B6864F31F434C6900EBC404C4F8F7
:1014500040320C890B6864F31F434C6900EBC404F1
:10146000C4F84432CB69012B16D1D0F80C321343A7
:10147000C0F80C320C884B6864F31F434C6900EBD6
:10148000C404C4F840320C89CB6864F31F434C6930
:1014900000EBC404C4F844328B69002BD0F804324A
:1014A0000ED01343C0F804320B69002BD0F814326D
:1014B00008D01343C0F81432096A012904D008E0A7
:1014C0009343EFE79343F5E7D0F81C121143C0F8BC
:1014D0001C12D0F8001221F00101C0F80012002007
:1014E00010BD000000640040704730B590F8204007
:1014F000012C05D0022C03D0416A41F480215DE02B
:101500000468002955D02469A40754D04FF4D87436
:10151000056804EB01142D5915F004059560056864
:101520002D594ED0ED08556005682C5904F0020481
:10153000D4604FF4DA74056804EB01142D5905F0FA
:101540000F05156105682D59C5F3072595610568D7
:101550002C59240C54614FF4DC72046802EB011224
:10156000A4581C700468A458240A5C700468A45829
:10157000240C9C700468A258120EDA704FF4DE72CC
:10158000046802EB0112A4581C710468A458240AD0
:101590005C710468A458240C9C710468A258120E53
:1015A000DA71006881B1016941F020010161002018
:1015B00030BDE468A8E7416A41F4001141620120AE
:1015C00030BD6D0D1560AFE7C16841F02001C1600D
:1015D000EDE70246002092F82010012901D00229EF
:1015E0000CD111688A68520100D501208A68120165
:1015F00000D5401C8968C90000D5401C70472DE902
:10160000F05F0546006800244669D0F804908768BA
:10161000D0F80CB0D0F810A0D0F81880F10748D05E
:10162000F90714D001218160B80703D5284600F0DE
:1016300012FA0CE0780702D54FF4006407E038078F
:1016400002D54FF4805402E0284600F003FAF80572
:1016500016D529684FF480708860B80503D52846F0
:1016600000F0FBF90CE0780502D544F4005407E0E3
:10167000380502D544F4804402E0284600F0ECF935
:10168000F80316D529684FF480308860B80303D575
:10169000284600F0E4F90CE0780302D544F4004455
:1016A00007E0380302D544F4803402E0284600F015
:1016B000D5F9300707D55FEACB6004D5296810203B
:1016C00044F40074C86070074FF0080707D55FEA5C
:1016D0000B7004D52868C760284600F071F9B00780
:1016E00006D52868C068800702D0284600F06AF94D
:1016F000700607D55FEACA6004D52968102044F453
:1017000080640861B00607D55FEA0A7004D52868CE
:101710000761284600F06EF9F00606D528680069D2
:10172000800702D0284600F066F9B00308D55FEACA
:10173000C96005D5296810204860284600F05CF98A
:10174000F00307D55FEA097004D52868476028468A
:1017500000F086F9300446D55FEA497040D5F005BF
:1017600004D55FEAC87001D044F00104B00504D587
:101770005FEA887001D544F00204700504D55FEA81
:10178000487001D544F00404300529D518F0700FD5
:1017900026D008F07000402815D006DC102809D0AB
:1017A00020280AD0302816D10AE050280ED0602810
:1017B00011D10EE044F008040DE044F010040AE0FA
:1017C00044F0200407E044F0400404E044F08004C6
:1017D00001E044F480742868816921F0700181611E
:1017E000296804204860002C05D0686A204368629C
:1017F0002846FFF779FEBDE8F09F70B5040003D0DE
:1018000094F8200010B104E0012070BD204600F0E3
:1018100081F82068016841F00101016000F080FB5F
:101820000546052604E000F07BFB401B0A2811D882
:1018300020684068C007F6D02068016821F00201E6
:10184000016000F06DFB05460BE000F069FB401BFA
:101850000A2806D9606A40F40030606284F820608B
:10186000D2E7206840688007EFD4207E01282068F6
:1018700001683DD021F080010160607E0128206870
:10188000016838D021F040010160A07E0128206865
:10189000016833D021F020010160E07E012820683A
:1018A00001682ED041F010010160207F01282068DE
:1018B000016829D021F008010160607F01282068BB
:1018C000016824D021F004010160D4E90201084339
:1018D000D4E90412114308436168491E0843216892
:1018E000C86100206062012084F82000002070BDE3
:1018F00041F08001C0E741F04001C5E741F020011F
:10190000CAE721F01001CFE741F00801D4E741F028
:101910000401D9E710B586B0044614216846FEF7E5
:10192000F9FD24492068884241D1234800210268FA
:1019300042F000720260006800F0007005901E48DE
:101940001038026842F001020260006800F00100F5
:1019500005904FF4C05000900220CDE90101032012
:101960000390092004906946144800F0D7F900223A
:101970000521132000F0F8FE132000F0E8FE0022FD
:101980000521142000F0F0FE142000F0E0FE0022FB
:101990000521152000F0E8FE152000F0D8FE0022F9
:1019A0000521162000F0E0FE162000F0D0FE06B063
:1019B00010BD0000006400404038024000000240BA
:1019C0007047000010B5094B094A0021FFF78DFD53
:1019D000002809D106480549503942684A64002266
:1019E000426003880B80026010BD000050000020A0
:1019F00010010020704770477047000070B5044622
:101A000090F82000012804D0606A40F40020606251
:101A100018E0022084F820002068016821F001010C
:101A2000016000F07DFA05460EE000BF00F078FA94
:101A3000401B0A2808D9606A40F400306062052023
:101A400084F82000012070BD20684068C007EDD1F7
:101A5000606270BD7047704770477047704770474D
:101A6000704790F83510022903D08021416501208C
:101A70007047052180F835100068016821F00101E8
:101A800001600020704790F8350070472DE9F84359
:101A900004464FF00009CDF8009063484FF416510A
:101AA000A56D0068B0FBF1F72E6894F85C10082073
:101AB00000FA01F131420FD021680A6852070BD5B4
:101AC0000A6822F004020A6094F85C108840A8605A
:101AD000606D40F00100606594F85C104FF0010803
:101AE00008FA01F0304208D021684969090604D596
:101AF000A860606D40F00200606594F85C100420FE
:101B00008840304208D021680968890704D5A86058
:101B1000606D40F00400606594F85C10102088400F
:101B2000304218D021680968090714D5A8602068D8
:101B30000168490304D50068000308D5A16C07E0DB
:101B40000168C90503D4016821F008010160216C16
:101B500009B12046884794F85C1020208840304224
:101B600031D021680968C9062DD5A86094F83500E0
:101B700005282068016806D0490347D5006800039E
:101B80001DD4616C1CE021F01601016020684169E0
:101B900021F080014161206C08B9A06C20B120685F
:101BA000016821F00801016094F85C103F20884032
:101BB000A86084F8358084F83490216D1FE0E16BD3
:101BC00009B120468847606D00282BD0606DC007A2
:101BD00014D0052084F835002068016821F0010147
:101BE00001600098401C0090B84203D8206800684B
:101BF000C007F6D184F8358084F83490E16C002970
:101C000010D001B02046BDE8F04308470168C9057F
:101C1000D5D4016821F01001016084F8358084F882
:101C20003490CCE7BDE8F883640000202DE9F04152
:101C3000044600F075F906465CB1022084F83500D0
:101C4000002584F834502068016821F0010101600A
:101C50000DE00120BDE8F08100F062F9801B05284D
:101C600005D920206065032084F83500F2E720685C
:101C70000068C007F0D12268116820480140D4E90B
:101C800001031843D4E90336334318436369184307
:101C9000A3691843E3691843236A18430843616A38
:101CA000042903D1D4E90B131943084310602068B9
:101CB0004069666A20F0070130460E430127042878
:101CC0000CD1A06A0643E06A40B12046FFF754F900
:101CD00020B14020606584F83570BAE7206846611D
:101CE0002046FFF735F994F85C203F219140816050
:101CF000656584F835700020ACE700003F8010F087
:101D000070470000044910B50A68024202D008601A
:101D1000FFF7F6FF10BD0000143C01402DE9F84F1D
:101D2000DFF8BCA1002201250AF1040B03264FF0C5
:101D30000F090BF1040E00BF0B6805FA02F42340F3
:101D4000A34270D10F7907F00307012F01D0022FB2
:101D500016D187684FEA420806FA08FC27EA0C0702
:101D6000D1F80CC00CFA08FC4CEA070CC0F808C00B
:101D70004768A7430C79C4F3001494403C43446083
:101D80000C79E443A4070AD0C4684FEA420C06FA6F
:101D90000CF7BC438F6807FA0CF72743C7600C7930
:101DA00004F00304022C12D1D40800EB840CDCF8FC
:101DB00020405707FF0E09FA07F824EA0804D1F873
:101DC000108008FA07F848EA0408CCF82080046874
:101DD0004FEA420C06FA0CF7BC430F7907F00307F1
:101DE00007FA0CF7274307604C6814F4403F70D0A3
:101DF0003C4C276847F480472760246822F003079B
:101E000004F480440094384C07EB040CDCF80848D8
:101E100097074FEA177809FA08F7BC43334FB842DF
:101E200002D1002724E054E0314FB84201D101270C
:101E30001EE0304FB84201D1022719E02E4FB842C0
:101E400001D1032714E02D4FB84201D104270FE040
:101E50002B4FB84201D105270AE02A4FB84201D1E1
:101E6000062705E0284FB84201D1072700E00827E0
:101E700007FA08F72743CCF80878DAF80040574605
:101E8000D1F804C09C435FEACC3C00D51C433C60C5
:101E9000DBF800405F46D1F804C09C435FEA8C3C0D
:101EA00000D51C433C60DEF800407746D1F804C002
:101EB0009C435FEACC2C00D51C433C60084F0C3798
:101EC0003C68D1F804C09C435FEA8C2C00D51C43CD
:101ED0003C60521C102AFFF42FAFBDE8F88F0000C1
:101EE000003C014044380240003001400000024004
:101EF0000004024000080240000C024000100240B2
:101F00000014024000180240001C02400069084012
:101F100000D0012070470AB1816170470904FBE7D6
:101F200001488068704700005800002070477047E3
:101F30002DE9F041016804464A694E6890F83E0078
:101F40000025D743FA0506D4F243D20503D46FF433
:101F5000807201254A61B90508D4F143C90505D449
:101F600022686FF4007145F002055161790525D4AE
:101F7000F143C90522D4638D94F83D10226B2028CB
:101F800008D13BB9212910D029290ED0282901D107
:101F9000212A0AD022686FF48061516145F004055E
:101FA000102806D0402804D008E0204601F040FD6B
:101FB00004E02068016841F400710160380508D42C
:101FC000F043C00505D421686FF4006045F00805B2
:101FD0004861002D07D0206C284320642046BDE8CE
:101FE000F04101F019B9BDE8F0812DE9F047026830
:101FF00000215368C66A90F83E4090F83D50102C7E
:1020000012D0402C10D0046C002C7DD05469E443D5
:10201000A6077AD4DE43B60577D4036C03B1916981
:10202000BDE8F04701F0E0BC976951694FF42A0C14
:10203000C9435FEAC1784FF02A4904D066452AD0E7
:102040004E4528D010E0DE43B6050DD4C16A614587
:1020500001D1012103E0C16A494501D10821C162D2
:10206000BDE8F04701F02ABC0E0716D4DE43B605E2
:1020700013D4416CC9B21161416B09B1C96B29B963
:10208000816B002907D0C96B002904D00068416822
:1020900041F400614160BDE8F0878E0706D4DE435D
:1020A000B60503D4BDE8F04701F07CBBFE4352689F
:1020B00076074FEA02521DD4002AECDB0A0608D448
:1020C000DA43520505D4490705D5BDE8F04701F0CC
:1020D0000DBB4907DFD4D9438905DCD4212D05D0B8
:1020E000402CD8D1BDE8F04701F02EBCBDE8F04748
:1020F00001F0BABA002ACEDB4A060BD4DA43520505
:1021000008D4490708D501E00DE00EE0BDE8F0472E
:1021100001F0AEB94907BED4D9438905BBD4BDE8A7
:10212000F04701F03CB9916970E7E10606D4D94364
:10213000890503D4BDE8F04701F0BCBC2821212D5E
:1021400027D0292D25D0650655D4DD436D0552D401
:10215000640752D590F83D30448D002C9BD0126915
:10216000446A2270426A521C4262428D521E42856B
:10217000428D002A8FD12A2B8DD10268536823F417
:10218000806353602222026380F83D1000F054FA0D
:1021900081E7250623D4DD436D0520D4640720D5CF
:1021A00090F83D30448D002CF2D0446A24781461BC
:1021B000426A521C4262428D521E4285428D002A62
:1021C000E6D1292BE4D10268536823F4806353607D
:1021D0002122026380F83D1000F02FFA5BE76107CF
:1021E000D6D4D9438905D3D4418D0029D0D0416AB2
:1021F000097811610AE06107CAD4D9438905C7D4B7
:10220000418D0029C4D01169426A1170416A491C8C
:102210004162418D491E41853DE7704770B504001C
:1022200025D094F83D00002520B984F83C50204684
:1022300000F064F9242084F83D002068016821F052
:10224000010101602068016841F4004101602068DB
:10225000016821F40041016000F072FB4D4A6168A1
:10226000914201D84C4900E04C49884201D20120FA
:1022700070BD4B492368B0FBF1F15E6826F03F0664
:102280000E435E606368934206D94FF496735943D8
:102290004FF47A73B1FBF3F12368491C1E6A26F0F0
:1022A0003F06314319626168914210D84900401ECF
:1022B000B0FBF1F2521CC2F30B02042A01D204203B
:1022C00022E0B0FBF1F0401CC0F30B001CE0A26860
:1022D000F2B301EBC10303EB0116431EB3FBF6F3AC
:1022E0005B1C43F480431B0549D092B301EBC10250
:1022F00002EB0111401EB0FBF1F0401CC0F30B00DB
:1023000040F4804040F400402168CA694CF6FF73F5
:102310009A431043C861D4E907100143206802685A
:1023200022F0C00211430160D4E903010143206897
:10233000826848F2FF339A4311438160D4E9050172
:1023400008432168CA6822F0FF021043C86001E018
:102350000EE016E02068016841F00101016025648B
:10236000202084F83D00256384F83E50002070BD95
:1023700001EB4106431EB3FBF6F35B1CB3E7012000
:10238000C2E701EB4101401EB0FBF1F0401CC0F37D
:102390000B00B7E7A086010080841E0000093D0005
:1023A00040420F007047000010B5064C0122114654
:1023B0002046FFF7B0FD20460122BDE81040022173
:1023C000FFF7A9BD00000240704700002DE9F84F5B
:1023D0001F4690468A460446DDF82890FFF7A0FD88
:1023E000054694F83D0020287FD119230122404959
:1023F0002046009501F032FC002876D194F83C008C
:10240000012872D0012084F83C0020680168C907C7
:1024100003D1016841F0010101602068016821F4E5
:1024200000610160212084F83D00102084F83E0006
:1024300000262664C4F824806785608D20852D4899
:10244000E0622B464A465146204601F085F890B995
:10245000206841698069009036E02A464946204656
:1024600001F004FD50B1206C042804D120680168FB
:1024700041F4007101600120BDE8F88F606A2168B5
:1024800000780861606A401C6062618D491E618548
:10249000218D491E89B2218522685369DB435B0780
:1024A0000BD451B100781061606A401C6062608D8D
:1024B000401E6085208D401E20852A4649462046C4
:1024C00001F0A6FB0028CED1208D0028C5D154F8FC
:1024D0003D0B016841F400710160202004F81E09E1
:1024E000E67766770020C7E7FFE70220C4E7000031
:1024F000020010000000FFFF704770472DE9F04117
:1025000086B0064614216846FEF704F8444DDFF80D
:102510000C81D6F800C04248122103220427414B07
:1025200010350024C4451BD1066846F0020606603B
:10253000006800F002000590C0208DE81300CDE98E
:10254000032769461846FFF7E9FB286840F40010A6
:102550002860286800F40010059006B0BDE8F081FE
:10256000DFF8C480C445F8D1D0F800C04CF0020CAC
:10257000C0F800C0006800F0020005904FF4406011
:102580008DE81300CDE9032769461846FFF7C6FB1F
:10259000286840F4800028602868254D00F48000F9
:1025A0000590224828604FF06068C5E9018407154E
:1025B000C5E903476C61AC61EC612C6228466C6232
:1025C000FFF734FB08B1FEF741FDB563AE63174872
:1025D000184D7830E5E80208402091C5154845F8C7
:1025E0001449AC61EC612C626C62FFF71FFB08B10F
:1025F000FEF72CFD7563002205212120AE6300F05B
:10260000B3F8212000F0A3F800220521222000F0D9
:10261000ABF8222000F09BF89FE700000054004038
:102620003038024000040240005800404060024040
:10263000C00D0020200E00207047704702488168BE
:102640000278114481607047580000200B4810B593
:10265000016841F400710160016841F4806101602A
:10266000016841F480710160032000F09DF80F20A3
:1026700000F006F800F03EF8002010BD003C0240DB
:1026800010B5014688B00022192000F06DF819201D
:1026900000F05DF813480024016841F00101016079
:1026A000006805A900F001000690684600F028F9CE
:1026B00000F056F90C490D4AB0FBF1F10C48491EE7
:1026C000026040F2E732C0E90324C0E9011400F0DF
:1026D00087FB10B1012008B010BD054800F0CCFB0D
:1026E000F9E700004438024040420F00000001407A
:1026F0007C1100200C4882B0016841F480410160E7
:10270000006800F4804000900748001F016841F015
:10271000805101600068002200F0805000900F217D
:10272000901E02B000F020B84438024000280DDBB3
:1027300000F01F02012191404009800000F1E020DB
:10274000C0F88011BFF34F8FBFF36F8F7047002821
:1027500009DB00F01F02012191404009800000F1D7
:10276000E020C0F800117047F0B40E4B1B680C4617
:10277000C3F30223C3F10705042D00D90425191D55
:10278000072901D2002300E0DB1E012606FA05F12D
:10279000491E214099409E40761E16403143F0BCB0
:1027A00002F048BB0CED00E0064900F007020868A3
:1027B0004FF6FF03184040EA0220034A1043086026
:1027C000704700000CED00E00000FA052DE9F0472D
:1027D0000E46050065D0DFF81481D8F80000F7B286
:1027E00000F00700B04207D288F80070D8F8000067
:1027F00000F00700B04254D128683D4C810712D543
:10280000400703D5206840F4E05020602878000796
:1028100003D5206840F4604020602068A96820F05B
:10282000F000084320602878C0072DD03049686840
:102830000839012812D0022813D0032811D00968C2
:10284000890700292DDA216821F003010143216065
:10285000FFF766FB814641F2883A0EE0096889037A
:10286000EFE709688901ECE7FFF75AFBA0EB0901E4
:10287000514502D90320BDE8F0872068696800F05F
:102880000C00B0EB810FEFD1D8F80010404601F0FA
:102890000701B14207D90770006800F00700B04295
:1028A00001D00120E7E72878400705D52068E968CE
:1028B00020F4E050084320602878000706D52068FF
:1028C000296920F4604040EAC100206000F058F817
:1028D0002168084AC1F30311515CC84006490860E9
:1028E00006480068FFF7CCFE0020C4E7003C024029
:1028F0000838024038700008640000205C000020A6
:102900000F2202600C4A136803F00303436013684C
:1029100003F0F0038360136803F4E053C3601268AC
:102920004FF4E05303EAD20202610448006800F069
:10293000070008607047000008380240003C024071
:102940000448054900680968044AC1F38221515CC2
:10295000C8407047640000200838024048700008F2
:102960000448054900680968044AC1F34231515CD2
:10297000C8407047640000200838024048700008D2
:10298000154810B5006810F00C02144813D08110DF
:10299000042A0FD0082A0ED10F4C241F2268236866
:1029A00002F03F025B0207D52068C0F38810A0FB4D
:1029B000010106E0084610BD2168C1F38811A1FBA2
:1029C00000010023FDF7B0FC2168C1F30141491C5F
:1029D0004900B0FBF1F010BD083802400024F400BB
:1029E0002DE9F84F04006ED02078DFF84C93C00733
:1029F000A9F104054AD009F104000168C1F381017D
:102A0000012908D00068C0F3810002280AD1D9F852
:102A10000000400206D52868800337D5606800288A
:102A2000E1D033E06068B0F5803F10D0B0F5A02F62
:102A3000286810D020F480302860286820F4802096
:102A400028606068A8B1FFF76BFA06460DE02868B9
:102A500040F48030F4E740F480202860F7E700BFBE
:102A6000FFF75EFA801B642873D828688003F7D5C7
:102A70000CE0FFF755FA064605E000BFFFF750FAF5
:102A8000801B6428F0D828688003F7D42078DFF80A
:102A9000AC8280074FF0000A3ED5A748001D0168B0
:102AA00011F00C0F08D00068C0F3810002280BD190
:102AB000D9F80000400207D42868800716D5E068DE
:102AC000012800D112E033E1E068B8B10120C8F874
:102AD0000000FFF725FA064605E000BFFFF720FAE1
:102AE000801B0228C0D828688007F7D5286821698C
:102AF00020F0F80040EAC10028600DE0C8F800A00E
:102B0000FFF70EFA064604E0FFF70AFA801B0228D8
:102B10001FD828688007F7D42078000722D5864F71
:102B200087486169703771B101210160FFF7F8F9D9
:102B3000064604E0FFF7F4F9801B022809D838683C
:102B40008007F7D50EE0C0F800A0FFF7E9F90646C8
:102B500005E082E0FFF7E4F9801B02287DD83868A1
:102B60008007F7D42078400768D5DFF8CCB100277C
:102B70000BF13C0BDBF80000C0000BD4DBF80010BD
:102B800041F08051CBF80010DBF80000012700F085
:102B9000805000906B4E3068C00510D4306840F40F
:102BA00080703060FFF7BCF9009005E0FFF7B8F9DE
:102BB0000099401A022850D83068C005F6D55E4EFC
:102BC000A0686C3601280FD00528306810D020F09E
:102BD00001003060306820F004003060A068B8B1B7
:102BE000FFF79EF900900FE0306840F00100F4E735
:102BF00040F004003060F7E7FFF792F90099411ABE
:102C000041F28830814266D830688007F4D50EE002
:102C1000FFF786F9009007E0FFF782F90099411A63
:102C200041F28830814256D830688007F4D42FB101
:102C3000DBF8001021F08051CBF80010A069C8B378
:102C40003D49091D0968C1F3810102294AD00228C2
:102C5000504607D0C8F8600000E03CE0FFF760F99C
:102C600004463BE04746C8F86000FFF759F90646BE
:102C700005E000BFFFF754F9801B02282BD8286815
:102C80008001F7D4D4E907010843A16A2E4A490814
:102C900002EB0141626A41EA8211084394F82C1068
:102CA00040EA0161C9F8001001203866FFF738F9E1
:102CB000044606E03EE000BFFFF732F9001B0228A1
:102CC00009D828688001F7D534E000BFFFF728F95C
:102CD000001B022802D90320BDE8F88F2868800174
:102CE000F4D427E00128F7D0D9F80000E26900F415
:102CF000800191421CD1226A00F03F01914217D11C
:102D000047F6C071626A0140B1EB821F10D1A26A1E
:102D10004FF0FF3300F4403103EB5202B1EB024FAE
:102D200006D194F82C1000F07060B0EB016F01D068
:102D30000120D1E70020CFE70438024000004742DD
:102D4000800E4742007000400000FFFF7047704750
:102D500070B590F83C20012A32D0012480F83C4024
:102D6000022280F83D2003685A689D6822F07006B0
:102D70000A6832435A60134B02689A4214D0B2F187
:102D8000804F11D0104B9A420ED0104B9A420BD06C
:102D90000F4B9A4208D00F4B9A4205D00E4B9A42E5
:102DA00002D00E4B9A4204D1496825F080031943A2
:102DB000916080F83D40002180F83C10084670BDCD
:102DC000022070BD000001400004004000080040E7
:102DD000000C004000040140004001400018004089
:102DE00010B5040003D094F83D0010B107E00120B5
:102DF00010BD002084F83C00204600F01FF802209F
:102E000084F83D00211D206801F04AFF012084F86C
:102E1000460084F83E0084F83F0084F8400084F8BF
:102E2000410084F8420084F8430084F8440084F8A8
:102E3000450084F83D00002010BD000008B5006882
:102E40000B49884212D10B48016841F01001016022
:102E50000068002200F01000009005213620FFF7E6
:102E600083FCBDE808403620FFF771BC08BD0000B8
:102E7000001000404038024090F83D10012901D078
:102E800001207047022180F83D100168CA6842F0B5
:102E90000102CA6000681149884214D0B0F1804F25
:102EA00011D00F4988420ED00E4988420BD00E49EE
:102EB000884208D00D49884205D00D49884202D089
:102EC0000C49884204D1816801F00701062903D02A
:102ED000016841F0010101600020704700000140DD
:102EE0000004004000080040000C004000040140C5
:102EF0000040014000180040704770B5044600686B
:102F000001694FF00005C943890715D4C168C94359
:102F1000890711D4E91E01610120207720688069AA
:102F20008007204602D0FFF7E7FF04E000F098F8A2
:102F3000204600F096F8257720680169C9434907C3
:102F400017D4C168C943490713D46FF00401016164
:102F5000022020772068806910F4407F204602D04C
:102F6000FFF7CAFF04E000F07BF8204600F079F894
:102F7000257720680169C943090716D4C168C94388
:102F8000090712D46FF0080101610420207720683E
:102F9000C0698007204602D0FFF7AEFF04E000F0D2
:102FA0005FF8204600F05DF8257720680169C94385
:102FB000C90617D4C168C943C90613D46FF01001FC
:102FC0000161082020772068C06910F4407F204606
:102FD00002D0FFF791FF04E000F042F8204600F035
:102FE00040F8257720680169C943C90708D1C1683D
:102FF000C943C90704D1891E0161204600F032F897
:1030000020680169C943090609D4C168C943090692
:1030100005D46FF0800101612046FFF797FE20681C
:103020000169C943490609D4C168C943490605D4A1
:103030006FF040010161204600F01EF82068016930
:10304000C94389060BD4C168C943890607D46FF008
:10305000200101612046BDE87040FFF778BE70BDD9
:103060007047704700680349884201D1FFF7E6BA0C
:1030700070470000000001407047FEE72DE9F8436B
:10308000044600680D469146016841F48061016084
:103090002068016841F48071016013464FF0011708
:1030A00000223946204600F00DFE98BB206907F14A
:1030B0000108B0F5804F10D00620216800EAD5162F
:1030C00046F0F00008614A46F91D204600F08AFEED
:1030D00038B1206C04282CD01CE0E8B240F001008C
:1030E0001DE02168E8B208614A464146204600F0EA
:1030F00079FE0028EDD1206841698169009101685D
:1031000041F4807101604B4600223946204600F0B0
:10311000D9FD10B10320BDE8F88346F0F100216825
:1031200008614A464146204600F05CFE0028D0D1A6
:10313000F1E70120EFE700000148FEF7F9BE0000CB
:10314000A80100200148FEF750BF0000A8010020A0
:103150005FF00A0001F09CFF6420FBE738B5806B4C
:10316000002190F83D202B4B46F2A8141B68B3FBBE
:10317000F4F3C3EBC30303EB830300933BB15B1E88
:10318000009303681B689B0505D5009BF6E7036C5D
:1031900043F020030364436B03B1D963836B03B132
:1031A000D96303681C6824F480641C604185436B08
:1031B00003B11965836B03B1196503681C6824F0BA
:1031C00001041C6090F83D402023602C0BD0282483
:1031D00034EA02020FD080F83D3080F83E1000BF84
:1031E000FFF71BF838BD80F83D3080F83E100164D1
:1031F000FEF79CFE38BD0268136843F001031360BC
:103200000268136843F480631360016380F83D40F3
:10321000E6E700006400002070B5044690F83D0029
:1032200094F83E10102901D0402906D1222804D15B
:1032300021680A6822F400620A60282131EA00024B
:103240004FF000054FF0200626D021684968090597
:1032500005D4602803D084F83D6084F83E5025638F
:1032600020684168090537D5416821F40061416053
:10327000606B90F835203C49012A11D00165606BE4
:10328000FEF7EFFB38B32068016821F0010101600F
:1032900084F83D60606B1CE0256384F83D10DFE737
:1032A000A06B0165A06BFEF7DCFBA0B12068416953
:1032B000C943490605D40069616A0870606A401C08
:1032C00060622068016821F00101016084F83D60BE
:1032D000A06B016D884710E094F83D10602910D074
:1032E0004169C943490605D40069616A0870606A8A
:1032F000401C60622046FEF790FF206CC1071CD185
:1033000015E084F83D6025644169C943490605D448
:103310000069616A0870606A401C60622068016828
:1033200021F0010101602046FEF700FEE5E781077C
:1033300003D4410701D4000704D52068416821F473
:10334000E061416094F83D00216C49070BD52828C5
:1033500009D10648E062256384F83D6084F83E5058
:103360002046FFF71FF870BD5D3100080000FFFF29
:1033700001684A69D24352050FD46FF480624A61F2
:10338000002140F8301F202242738173026942F00D
:10339000040202610173012070470020704710B5DC
:1033A000C26A438D0168042B06D0438D032B08D0DD
:1033B000438D022B1DD012E04A6822F480624A60DD
:1033C0000CE04B6823F480634B60042A06D0022A89
:1033D00004D001680A6822F480620A600168096901
:1033E000426A1170416A491C4162418D491E418502
:1033F00010BD012A30D0102A2ED0042A30D0022A43
:103400002ED00A6842F400720A6001680969426AB3
:103410001170416A491C4162428D521E4285026808
:1034200012690A70416A491C4162418D491E4185F9
:1034300001684A6822F440724A60202180F83D10F9
:1034400090F83E200021402A80F83E100CD0122136
:103450000163FEF7A9FF10BD0A6822F48062D3E77A
:103460000A6842F48062CFE70163FFF745F810BDB8
:1034700038B590F83D10222914D1418D032912D975
:1034800001680969426A1170416A491C4162418DB3
:10349000491E4185418D032904D10068416821F40A
:1034A0008061416038BDC26A022AFBD0012901D087
:1034B0000029F7D1274946F2A81300220968B1FB79
:1034C000F3F101EB8101009101682023009C641E4F
:1034D000009422D00C68A405F8D40C6824F480640D
:1034E0000C6001684C6824F4E0644C600168096970
:1034F000446A2170416A491C4162418D491E4185DF
:1035000080F83D3090F83E1080F83E2040291DD0D4
:1035100012210163FEF748FF38BD046C44F020041B
:1035200004644C6824F4E0644C6001680969446AEE
:103530002170416A491C4162418D491E418580F8D4
:103540003D3080F83E20FEF768FE38BD0263FEF78E
:10355000D3FF38BD64000020F8B50446C06A1E469B
:103560000D461746082807D0012805D010F5803FE2
:1035700002D0206B122804D12068016841F48071C8
:103580000160134600224FF001112046009600F022
:1035900065FB40B120680068C00502D54FF400709B
:1035A00020640320F8BD2069B0F5804F0ED00620BE
:1035B000216800EAD51040F0F000086133463A4631
:1035C0000B49204600F0C3FB78B902E005F0FE008D
:1035D00000E0E8B221680861054933463A46891F90
:1035E000204600F0B4FB0028DCD00120F8BD00002C
:1035F0000800010070B5044600680D4616460168D3
:1036000041F480710160134600224FF00111204601
:1036100000F058FB98B92069B0F5804F11D0062012
:10362000216800EAD51040F0F000086132460D49EB
:10363000204600F0D7FB38B1206C042810D00320BE
:1036400070BD05F0FE0000E0E8B2216808610549A0
:103650003246891F204600F0C5FB0028ECD170BD22
:10366000012070BD0800010010B5C26A90F83D103D
:1036700021290BD1418D51B1416A0268097811614C
:10368000416A491C4162418D491E418510BD20237C
:103690000021082A13D0202A11D012F5803F0ED025
:1036A0000268546824F4E06454601122026380F8D4
:1036B0003E1080F83D3000BFFEF786FE10BD026868
:1036C000546824F4E06454600268146844F400749C
:1036D0001460016380F83D3090F83E2080F83E1081
:1036E000402AE9D1FEF709FF10BD000010B590F89F
:1036F0003D1090F83E30C26A048DB4B1212903D048
:10370000402B11D122290FD1418DE1B390F83E1009
:10371000402942D0416A026809781161416A491C16
:103720004162418D491E418510BD2129E8D12023E8
:103730000021082A13D0202A11D012F5803F0ED084
:103740000268546824F4E06454601122026380F833
:103750003E1080F83D3000BFFEF736FE10BD026817
:10376000546824F4E06454600268146844F40074FB
:103770001460016380F83D3090F83E2080F83E10E0
:10378000402AE9D100E002E0FEF7B7FE10BD006874
:10379000416821F48061416010BDBDE8104000F037
:1037A000D3B8000078B590F83E50C26A036B90F829
:1037B0003D6000240168222E7AD1066D0EB9402D9D
:1037C00076D0056D1DB90569B5F5404F09D0458D19
:1037D00005B3468D384D012E0ED0438D022B3AD0C5
:1037E0005DE04A698A6900920A6842F480720A6060
:1037F000016D491C016578BDAA4213D10A6822F403
:1038000080620A6001684A68120503D50A6822F4DA
:10381000806216E04A698A6900920A6842F400727E
:103820000A6039E0082A10D0202A0ED0122B0AD0C4
:10383000042A03D0022A01D0102AE7D10A6842F4F0
:1038400080620A6024E0012AE0D00A6822F48062E3
:103850000A600168DEE7042A21D0022A1FD0102A5C
:103860001DD00B6823F480630B6001680B6843F480
:1038700000630B6001684B681B0509D5AA4212D092
:10388000012A10D0082A0ED0102A0CD0202A0AD0E3
:1038900001684A6989690091046578BD08E00B6890
:1038A00043F48063E5E74A6842F480524A60EFE7F8
:1038B000486988690090F0E70000FFFF90F83E102B
:1038C000402910D00169B1F5804F19D0016DA9B31D
:1038D000016D012910D1416C5FF0F10201F44071DA
:1038E00042EAD11106E0016D0029416C05D0C9B250
:1038F00041F0010100680161704701F0FE01F9E744
:1039000090F83D102129416C09D0C9B241F0010164
:1039100002681161416B29B1C96B49B902E001F03C
:10392000FE01F5E7816B0029E6D0C96B0029E3D0E1
:103930000068416841F4006141607047FFE7416CF5
:10394000F02201F44071CBE710B590F83D10026D04
:1039500022B3026D012A2FD0026D022A1DD1222925
:103960002FD0428D0AB1212933D0428D002A14D1A3
:10397000212912D101684A6822F4E0624A60016894
:103980000A6842F400720A6000210163202280F874
:103990003D2080F83E10FEF7B0FD10BDC16C01293E
:1039A000816C02D0C1F3072108E00268C9B211613D
:1039B000016D891C016510BD816CC9B2026811617D
:1039C00004E001680A6842F480720A60016D491CD3
:1039D000F0E7416A026809781161416A491C416255
:1039E000418D491E418510BD38B50C4690F83D20EB
:1039F00000212825954302680B4605D0516991693D
:103A0000009180F83C3038BD556825F480655560DC
:103A1000E243540700D50121120601D5828900E056
:103A2000028B80F83C3092B2FEF781FA38BD00007C
:103A30002DE9F04190F83D40C26A002320261C4F3A
:103A400001686FF48065082A01D0202A01D1282C52
:103A500004D0212C16D04D61BDE8F081C7624A68C0
:103A600022F4E0624A6001684D6101680A6822F44C
:103A700080620A60036380F83D6080F83E30FEF7A4
:103A800091FCE9E7C7622122026380F83D6080F87B
:103A90003E304A6822F4E0624A6001684D61016884
:103AA0000A6822F480620A60FEF7C7FDD4E70000CE
:103AB0000000FFFFF8B590F83D60044600684168DB
:103AC00021F4E061416020680025416900910168AE
:103AD00041F0010101602068016821F4806101600A
:103AE00020684168090520D5474F222E48D02A2E4C
:103AF00046D0616B096849686185618D19B1216C97
:103B000041F004012164416821F400614160606B6F
:103B1000FDF7B9FF012808D0606B0765606BFDF702
:103B2000A0FF10B1606B016D8847608D08B32068FD
:103B30004169C943490708D40069616A0870606A2D
:103B4000401C6062608D401E608520684169C943E9
:103B5000490608D40069616A0870606A401C6062A6
:103B6000608D401E6085608D18B1206C40F00400AF
:103B70002064206C00B32046BDE8F840FFF74CBB42
:103B8000A16B096849686185618D19B1216C41F0AB
:103B900004012164416821F400614160A06BFDF7DC
:103BA00072FF0128C1D0A06B0765A06BFDF759FF1C
:103BB0000028BAD0A06BB6E72A2E06D125632820AC
:103BC00084F83D002046FEF737FD94F83D10202094
:103BD00028290DD0216B222901D0222E07D125635F
:103BE00084F83D0084F83E502046FEF725FDF8BDE0
:103BF0000649E162256384F83D0084F83E50204682
:103C0000FEF7D0FBF8BD00005D3100080000FFFFAB
:103C100070B516460D4604460DE02046FFF7A8FB9A
:103C200008B1012070BD681C05D0FEF779F9801B32
:103C3000A84207D835B120684069C0434007ECD49A
:103C4000002070BD002044F8300F20216173A07364
:103C5000216941F0200121612073E2E72DE9F0475D
:103C60001E4690460D460446C1F30747DDF82090F6
:103C700008E0701C06D0FEF753F9A0EB0900B04233
:103C80000FD876B12068012F18D0806925EA00008E
:103C90000004000C14D000214145EAD00020BDE80A
:103CA000F087002044F8300F20216173A073216950
:103CB00041F02001216120730120F0E74069E5E730
:103CC0000121E9E72DE9F05F1E4690460C460546C6
:103CD000FEF726F981464FF0000A4FF0200BC4F39F
:103CE0000747B8F1000F09D024E0701C06D0D6B108
:103CF000FEF716F9A0EB0900B04214D82868012F8E
:103D000006D0806924EA00000004000C1BD0ECE718
:103D10004069F7E7701C0DD02EB1FEF701F9A0EB5A
:103D20000900B04206D985F83DB085F83CA00320D3
:103D3000BDE8F09F2868012F07D0806924EA0000C1
:103D40000004000CE6D00020F2E74069F6E72DE918
:103D5000F0479A4691460E46044600254FF020084B
:103D6000C1F3074725E020684069C043400514D4EB
:103D70002068016841F40071016021686FF480607F
:103D80004861256384F83D8084F83E50206C40F003
:103D90000400206484F83C501FE0B9F1FF3F08D0D4
:103DA000FEF7BEF8A0EB0A0149450CD8B9F1000FA7
:103DB00009D02068012F13D0806926EA0000000492
:103DC000000C0BD0CFE744F8305F84F80D80A5736A
:103DD000206940F02000206125730120BDE8F087B4
:103DE0004069EAE72DE9F04791460D460446FEF7A3
:103DF00097F8824600274FF02008C5F3074628E0D1
:103E000020684069C043400511D42068016841F42E
:103E10000071016021686FF48060486104202064B3
:103E200084F83D8084F83C700120BDE8F087B9F14A
:103E3000FF3F0ED0B9F1000F05D0FEF771F8A0EBEF
:103E40000A01494505D984F83D8084F83C70032077
:103E5000EBE72068012E07D0D0F8180025EA000013
:103E60000004000CE1D0CBE74069F7E770B51646D7
:103E70000D4604460DE02046FFF77AFA08B101200E
:103E800070BD681C05D0FEF74BF8801BA84207D810
:103E900035B120684069C0430006ECD4002070BDF5
:103EA000002044F8300F20216173A073216941F094
:103EB000200121612073E2E70E4C0020012784F8E5
:103EC0005A0042F21076022584F85A7001E0012867
:103ED00007D1304601F0DCF894F85A0008B184F8B4
:103EE0005A50642001F0D4F894F85A000028EBD01E
:103EF000EDE7000090030020DFF8F8904FF48058C1
:103F0000012241464846FEF706F83B4E01220421B5
:103F10003046FEF700F8394DB715002239462846DD
:103F2000FDF7F9FF002220212846FDF7F4FF344C6D
:103F300094F85C0080B1002241464846FDF7EBFF53
:103F4000002204213046FDF7E6FF012239462846CB
:103F5000FDF7E1FF012245E094F85A1094F85B0068
:103F6000022926D00021084304D0012241464846B8
:103F7000FDF7D1FF012204213046FDF7CCFF0122DD
:103F800039462846FDF7C7FF012220212846FDF7C4
:103F9000C2FF94F85C0070B15FF0000094F85B1011
:103FA00059B10021084094F85A10022907D0012184
:103FB00006E00121D7E70120F0E70121F2E7002127
:103FC000084213D0012241464846FDF7A4FF0122D2
:103FD00004213046FDF79FFF002239462846FDF7B1
:103FE0009AFF002220212846FDF795FF642001F06A
:103FF0004FF89DE700080240000C02400004024018
:10400000900300202DE9F041D94E1D462DED048B83
:104010001446871B9FEDD78B01220023B04272D03C
:1040200034DCD64E80196FD001286ED1087884F820
:1040300025004A7884F826204A8800EE100A228556
:104040008A886285B8EE400AC988A18585ED080A8C
:1040500094F8260000EE100AB8EE400A85ED090A31
:10406000208D00EE100AB8EE400A85ED050A608D3D
:1040700000EE100AB8EE400A85ED060AA08D00EEAB
:10408000100AB8EE400A85ED070A5DE0BC48381812
:104090009FEDBC9B07D0012860D1087810F0010F7C
:1040A00060D063705FE0087810F0010F01D02270DB
:1040B00000E02370087810F0020F01D0A27000E039
:1040C000A370087810F0040F01D0227100E0237172
:1040D000087810F0080F01D0A27100E0A3710878F1
:1040E00010F0100F01D0227200E02372087810F057
:1040F000200F01D0A27200E0A372087810F0400FE8
:1041000004D0227303E0BCE07FE027E0237308784B
:1041100010F0800F01D0A27300E0A37348782074E0
:10412000488860820879A0754879A075C88860833E
:1041300020786870608A02F009FD53EC192B02F0B8
:1041400019FD02F08DFCA860207C02F0FFFC53EC0E
:10415000182B02F00FFD02F083FC6860BDEC048BAD
:10416000BDE8F0816270087810F0020F01D0E270B3
:1041700000E0E370087810F0040F01D0627100E0F5
:104180006371087810F0080F01D0E27100E0E3716C
:10419000087810F0100F01D0627200E063720878A6
:1041A00010F0200F01D0E27200E0E372087810F006
:1041B000400F01D0627300E06373087810F0800F45
:1041C00001D0E27300E0E373487860744888A0820D
:1041D0000A79E2754A79E275C98849BAA18302F081
:1041E000B5FC53EC192B02F0C5FC02F039FCA860B9
:1041F000607C02F0ABFC53EC182B02F0BBFC02F02D
:104200002FFC686060786870A8E7087810F0010FEC
:1042100001D0A27700E0A377087810F0020F01D058
:10422000E27700E0E377087810F0040F02D084F81A
:10423000202001E084F82030087810F0080F02D028
:1042400084F8212001E084F82130087810F0100F64
:1042500002D084F8222001E084F82230087810F09F
:10426000200F02D084F8232001E084F8233008785E
:1042700010F0400F02D084F824206FE784F8243037
:104280006CE70888E0854E8826868E8866868E795B
:1042900084F83460CE7916F0010F02D084F835200E
:1042A00001E084F83530CE7916F0020F02D084F8A0
:1042B000362001E084F83630CE7916F0040F02D0B3
:1042C00084F8372001E084F83730CE7916F0080FF3
:1042D00002D084F8382001E084F83830CE7916F026
:1042E000100F02D084F8392001E084F83930CE79FB
:1042F00016F0200F02D084F83A2001E084F83A301A
:10430000C97911F0400F02D084F83B2001E084F815
:104310003B3002F01BFC53EC182B02F02BFC02F09C
:10432000D1FB05F8500F208E02F010FC53EC182B37
:1043300002F020FC02F0C6FB6870608E02F006FC02
:1043400053EC182B02F016FC02F08AFB686094F81C
:104350003400287214F8370F6178E27840EA41009F
:10436000A178890041EAC20108436873F6E60000BB
:1043700044001B037B14AE47E17A843FBEFFE4FC9C
:104380000400AAFF9A9999999999B93F2DE9F041AA
:104390002D482C49002501600C21C0E901150904B4
:1043A000C0E903514FF4801141610576012646763C
:1043B0008576C67605774577FDF71FFA08B172B6A0
:1043C000FEE7214C41F6D800443C4FF401774FF60C
:1043D000FF78656184E88101C4E906564FF6C47030
:1043E000C4E903050F20C4E9086021461648FCF71C
:1043F000F5FF08B172B6FEE741F68830666184E8E1
:1044000081014FF6E4701049E06044390E48FCF732
:10441000E5FF08B172B6FEE70220606142F2A060DB
:10442000C4E900054FF6E070C4E9020506490648F4
:104430004439FCF7D3FF002801D072B6FEE7BDE88F
:10444000F0810000006400402C010020224808B5E3
:104450000268002142F400120260026802F40012B5
:104460000092026842F48002026000681B4A00F475
:10447000800000901A48C0E90021802282609200EA
:10448000C2605200C0E9042181610422C161C0E917
:1044900008120322C0E90A210163FDF7C7FB08B136
:1044A00072B6FEE7002205210D20FEF75DF90D2012
:1044B000FEF74DF9002205212F20FEF755F92F2098
:1044C000FEF745F9002205213820FEF74DF9BDE839
:1044D00008403820FEF73BB93038024010640240F3
:1044E000440200202DE9F04F87B014216846FCF704
:1044F00011F85E480024016841F080010160016804
:1045000001F080010591016841F00401016001683A
:1045100001F004010591016841F0010101600168A9
:1045200001F001010591016841F00201016001689B
:1045300001F002010591016841F008010160006885
:10454000DFF82C9100F0080005900022FF2148467A
:10455000FDF7E1FCDFF81C8141F2F0060022314654
:104560004046FDF7D8FCDFF810A100220421504698
:10457000FDF7D1FCDFF804B14FF490770022394603
:104580005846FDF7C8FC40F60F50CDE900046946D7
:1045900040460294FDF7C2FBFF2000900125CDE9C3
:1045A0000154694648460394FDF7B8FB0096CDE9EF
:1045B0000154694640460394FDF7B0FB03204FF4D5
:1045C0008816CDE90006694602945846FDF7A6FB19
:1045D0004FF47040CDE90004694658460294FDF757
:1045E0009DFB4FF4C060CDE9000669460294484641
:1045F000FDF794FB04200090CDE901546946504634
:104600000394FDF78BFB0097CDE9015469465846AA
:104610000394FDF783FB68028DE831006946584634
:10462000FDF77CFB002205210620FEF79DF8062001
:10463000FEF78DF8002205210720FEF795F80720E8
:10464000FEF785F8002205211720FEF78DF81720C8
:10465000FEF77DF8002205212820FEF785F82820A6
:10466000FEF775F807B0BDE8F08F00003038024063
:104670000000024000080240000C0240000402401A
:104680000D4810B50B4901600C49416000214FF401
:1046900080428160C0E9031241618161C1610162B0
:1046A000FDF7BCFD08B172B6FEE7BDE81040212061
:1046B000FEF73CB800580040A8010020801A060010
:1046C000FEE7000030B5934C20440A287ED2DFE894
:1046D00000F0052B7D52668ED4E8EDFD10789378BE
:1046E000947940EA430013799B0043EAC4031843DA
:1046F000137A40EA0310937A40EA4310137B40EAAE
:104700008310937B40EAC3100870107C4870907C43
:104710008870508A000AC870907D0871107E4871B8
:10472000907E8871508B24E05078D378D47940EA19
:10473000430053799B0043EAC4031843537A40EA89
:104740000310D37A40EA4310537B40EA8310D37BB3
:1047500040EAC3100870507C4870107D8870908AC1
:10476000000AC870D07D0871507E4871107F887132
:10477000908B000ACCE092F82500087012F8260F02
:104780004870907888705088000AC8701079087155
:104790009088000A487190798871D088E9E712F80A
:1047A0002E0F08701088000A487090788870508822
:1047B000000AC870107908719088000A48719079D1
:1047C0008871D079137A40EA430000E0A1E0537A7F
:1047D000947A9B0043EAC4031843D37A40EA031057
:1047E000137B527B40EA431040EA821090E013F8BA
:1047F0005B4F587804F00105034665F35F0300F052
:10480000020543EA450304F0020543EA850300F08C
:10481000040543EA850304F0040543EAC50300F0F8
:10482000080043EAC00004F0080340EA03100870DF
:1048300012F8440F5378D47840EA430093789B00F1
:1048400043EAC4031843137940EA0310537940EA5A
:104850004310937940EA8310D37940EAC31048703B
:1048600000208870C870107A08711089000A487199
:104870009068000C8871906816E013F82A0F087091
:104880001888000A4870987888705888000AC8709C
:10489000187908715879487112F8560FC871108844
:1048A00067E713F8340F03E0000E31E013F83C0F14
:1048B00008701888000A48701868000C887018681A
:1048C000000EC87018790871988800E006E0000AA8
:1048D00048715868000C88715868E5E713F8440F70
:1048E00008701888000A48701868000C88701868EA
:1048F000000EC870187908719888000A48715868C5
:10490000000C88715868182801D9012000E00020A7
:10491000C87130BDC0FF4EFCFEE7000010B5204C52
:10492000002210212046FDF7F6FA00222021204621
:10493000FDF7F1FA002240212046FDF7ECFA0022B3
:1049400080212046FDF7E7FA164C0022012120467F
:10495000FDF7E1FA002202212046FDF7DCFA0022F1
:1049600004212046FDF7D7FA002208212046FDF752
:10497000D2FA002210212046FDF7CDFA0022202194
:104980002046FDF7C8FA002240212046FDF7C3FA71
:1049900020460022BDE810408021FDF7BCBA00008F
:1049A000000802400000024070B5044690F85C0028
:1049B00094F85B1094F85D20464E474D00F00100DE
:1049C00001F00101D20713D090B989B90122102159
:1049D0003046FDF7A0FA012211462846FDF79BFA62
:1049E000012202212846FDF796FA606B401C6063A5
:1049F00094F85C0094F85B1094F85D2000F00200DD
:104A000001F00201920713D590B989B90122202142
:104A10003046FDF780FA012204212846FDF77BFA93
:104A2000012208212846FDF776FAA06B401CA063FE
:104A300094F85B0094F85D2000F0040194F85C00A9
:104A4000520700F0040013D590B989B90122402122
:104A50003046FDF760FA012210212846FDF75BFA87
:104A6000012220212846FDF756FAE06B401CE06346
:104A700094F85B0094F85D2000F0080194F85C0065
:104A8000120700F0080013D590B989B901228021DE
:104A90003046FDF740FA012240212846FDF73BFA57
:104AA000012280212846FDF736FA206C401C206444
:104AB0002521606B00F07CF92B21A06B00F078F9C8
:104AC0003121E06B00F074F9206CBDE870403721B3
:104AD00000F06EB9000802400000024008B501462F
:104AE00002236A460448FCF7B3FA9DF800009DF8DB
:104AF000011040EA012008BD540100201CB5014608
:104B000004236A460848FCF7A3FA9DF800009DF8C4
:104B1000011040EA01209DF8021040EA01409DF892
:104B2000031040EA01601CBD5401002008B5014695
:104B300001236A460248FCF78BFA9DF8000008BD85
:104B4000540100203D20FFF7D9FF1E4C4FF47A7529
:104B50006064A07804280ED094ED020A0121BCEE16
:104B6000C00A10EE100A80B2FCF732FAD4ED030A44
:104B700030EE200A01E09FED140A012184ED030AC2
:104B800094ED020ABCEEC00A10EE100A80B2FCF7E7
:104B90001FFAD4ED040AF8EE600A30EE200ABCEEEB
:104BA000C00A10EE100A2061A84207D3002020613D
:104BB000606C3D21401C606400F0FAF8642000F055
:104BC00067FAC6E7900300200000000010B54FF020
:104BD000E020006901F08EFD012803D0BDE81040FF
:104BE00001F05EBA10BD000030B593B030216846C8
:104BF000FBF790FC14210CA8FBF78CFC1C4800244C
:104C0000016841F080510160006800F0805011900F
:104C10001848016841F4804101600068022500F4F1
:104C2000804011900120039010200490009506957B
:104C30000820CDE907404820099006200A9004206A
:104C40000B906846FDF7CCFE08B172B6FEE70F2068
:104C50000C90CDE90D540F9400210CA81094FDF791
:104C6000B5FD002801D072B6FEE713B030BD0000DC
:104C700040380240007000400248016841F4700171
:104C80000160704788ED00E00148FEF736B900008A
:104C90007C1100200148FEF730B90000FC01002023
:104CA000F0B50268254C264D264E274F274B4FF076
:104CB000804CA04209D0604507D0A84205D0B04240
:104CC00003D0B84201D0984204D122F0700E4A6855
:104CD00042EA0E02A0421BD0604519D0A84217D06C
:104CE000B04215D0B84213D0984211D0184DA84206
:104CF0000ED0184DA8420BD0174DA84208D0174D22
:104D0000A84205D0164DA84202D0164DA84203D1A4
:104D100022F44075CA682A434D6922F080022A4372
:104D200002608A68C2620A688262A04201D0984228
:104D300001D10969016301214161F0BD0000014019
:104D40000004004000080040000C00400004014046
:104D5000004001400044014000480140001800406C
:104D6000001C0040002000404320FFF7C7FE0E4C0F
:104D7000A0644920FFF7C2FE4EF660260025E064DD
:104D8000304600F085F9E06C4921401CE06400F0F9
:104D90000FF8E06C3C28F3D3E564A06C4321401C81
:104DA000A06400F005F8EBE790030020FEE70000A8
:104DB00013B582B00C4602988DF80000010A8DF8F8
:104DC0000110010C8DF80210000E8DF80300042173
:104DD00002A8FCF79BF88DF8040005236A462146DB
:104DE0001348FCF763FA05236A4621461048FCF78E
:104DF0002FF99DF800009DF801109DF8044040EA4D
:104E000001209DF8021040EA01409DF8031040EA9D
:104E100001600299884208D1042102A8FCF776F8C3
:104E2000A04202D1012004B010BD0020FBE7000029
:104E3000540100200907090E002804DB00F1E020DE
:104E400080F80014704700F00F0000F1E02080F8B7
:104E5000141D70471CB57B480024016841F4000113
:104E60000160006800F40000009076482038016876
:104E700041F400010160016821F400010160FDF7C7
:104E8000E5FB71497022A1F17000FBF709FBFFF708
:104E9000ABFEFFF727FBFFF7F3FBFFF777FAFFF710
:104EA000D5FA6B48694901606A49C0E901144FF4B9
:104EB0008041C0E9034144618461C4610462FDF73B
:104EC000ADF908B172B6FEE761480094A8306249B6
:104ED0000194C0E900144FF6FF71C0E902418461FA
:104EE000FDF77EFF08B172B6FEE7594800946946A7
:104EF000A8300194FDF72CFF08B172B6FEE75248C6
:104F00007030FCF787F800210A2001F0DFF8534DDC
:104F10004D496860D031D02081F8D80401F2DC41DD
:104F2000322081F8D804A1F5F460FCF767FD484809
:104F300048F602412838FCF7DBF90022114621200F
:104F4000FDF712FC2120FDF702FC4FF400714448EC
:104F5000FCF7DCFF3C497031012870D0012081F85A
:104F6000590000BF00F0A2F801213E4A084600F0B7
:104F7000F7F83C4A012128631032084600F0F0F8A7
:104F8000384A012168632032084600F0E9F8354AC2
:104F90000A21A8633032084600F0E2F8314A0221C3
:104FA000E8634032084600F0DBF82E4A2864183ADD
:104FB00002211E2000F0A8F8E8622B4A00212B48AD
:104FC00000F01AF9284AA86024320021284800F08D
:104FD00013F9254AE86048320021264800F00CF910
:104FE000214A28616C320021234800F005F91E4A4D
:104FF000686190320021214800F0FEF8194AA8614A
:10500000A83A00211E4800F0F7F8164AE861843AF1
:1050100000211C4800F0F0F8124A2862603A002192
:10502000194800F0E9F80F4A68623C3A0021174835
:1050300000F0E2F8A86200F04BF8FEE7FFE781F825
:1050400059408FE7403802402003002000540040C0
:1050500054010020801A06000010004000000020CB
:1050600000040240E06F0008846E0008454B000811
:1050700051310008C9080008F93E0008250600085B
:1050800099060008950D0008B93E0008694D000812
:1050900010B5EFF3058111B16FF0050403E00024B2
:1050A00008B100F09DFE204610BD0000EFF3058022
:1050B00010B16FF0050070470448016811B14FF05E
:1050C000FF3070470121016000207047B8000020C8
:1050D00010B5EFF3058010B16FF0050010BD084862
:1050E0000168012902D04FF0FF3010BD054A0021B0
:1050F00082F8141D0221016000F0DAFE002010BDCC
:10510000B80000200BE000E0F8B514464FF00005B1
:10511000EFF3058212BB08B301B3A4B1D4E90232A4
:1051200063B1502A1AD32269C2B1676900FB01F644
:10513000B74213D3009501F027F807E072B922694E
:1051400062B9626952B9002200F0FDFF050005D086
:105150000CB1216800E0002100F0E0FD2846F8BD18
:10516000F8B5144603460E464FF00005EFF30580F0
:1051700098BB93B39E423DD84CB1A0680028E0682C
:1051800003D0502836D3012002E008B132E00020DD
:10519000012B05D010B31846A26800F0B4FF20E040
:1051A00040B103200090002211460120A36800F0C6
:1051B000EBFF04E003220021012000F0C4FF050002
:1051C00018D086B100231A46194601F055F8012877
:1051D00009D0284600F0B6FD00250BE0184600F087
:1051E00075FF050006D00CB1216800E000212846BB
:1051F00000F094FD2846F8BD2DE9FF414FEA010378
:105200004FF00005EFF30581039549BB40B38027BC
:10521000182100244AB3166806B1344696691EB1B7
:105220003146761E382E02D21679F60703D00020BA
:1052300004B0BDE8F081566906B1B708D2F808C0DD
:10524000BCF1000F0DD0D5685C2D18D312693AB1AE
:1052500036B18DE806103A46214601F020FA039057
:105260000DE0D6685EB912694AB903AACDE9001209
:10527000BAB2214601F0E6F9012800D0039503985F
:10528000D6E700002DE9F041134C0F460546E668CD
:105290002068001D00F044FC681C07D137B121686C
:1052A000BDE8F0410D48091D00F08ABC2068354476
:1052B000B5424560216805D2A06BBDE8F041091DEB
:1052C00000F066BC606B091D00F062FCA06A8542BC
:1052D00000D2A562BDE8F08168000020B41600206D
:1052E0002DE9F041054600F077FC2D4CA068401CEC
:1052F000A06020682B4F10B1606930B32BE02560AF
:10530000A068012827D1002606EB860007EB800065
:1053100000F030FC761C382EF6D3234800F02AFC2F
:105320002148143000F026FC1F48283000F022FCF1
:105330001D483C3000F01EFC1B48503000F01AFCA9
:10534000194860631430A06305E02068E96AC06A08
:10535000884200D82560606A401C60626864E86A20
:105360002169884200D9206100EB800007EB8000B2
:10537000291D00F025FC00F04FFC606900280CD0CE
:105380002068E96AC06A884207D208494FF0805015
:105390000860BFF34F8FBFF36F8FBDE8F08100004F
:1053A00068000020041200206416002004ED00E0D4
:1053B00038B500F011FC104C2068C8B90F4800F057
:1053C000D9FB0E48143000F0D5FB0C48E0601430D7
:1053D00020610A4B0020F03B009003F150021021A5
:1053E0000A2000F0D1FE206010B105A100F096FC6B
:1053F000BDE8384000F010BCA4000020B817002021
:10540000546D72510000000030B4026C0B46002A4B
:105410000BD0C1681144C1608468A14201D3016806
:10542000C16030BC1846FAF7F6BF30BC70472DE9B2
:10543000F041856B174604460026026C82B1C7B165
:10544000E068FAF7E8FFE168206C091AE160226879
:10545000914202D2A168081AE060022F16D017E02C
:105460002068A8B9A06801F0BDF906460020A06038
:105470000EE06068FAF7CFFF216C60680844606056
:10548000A168884204D32068606001E005B16D1E08
:105490006D1CA5633046BDE8F08110B5044690F858
:1054A000590058B101280CD002280FD0502080F3A9
:1054B0001188BFF34F8FBFF36F8FFEE7206B00F0B3
:1054C000BFFB2046BDE8104000F0BABB10BD000095
:1054D00010484FF47051420706D0C01D0D4920F00E
:1054E0000700411AC1F570510B4A00230144C2E97B
:1054F00000030839183A21F0070111604B600B6076
:105500000B1AC0E9001393604FF0004053605061E4
:1055100070470000981E0020D4000020144E154C47
:10552000A6F29C474FF08058DFF84C9012E000BF85
:1055300000F052FBF068C568281D00F0F1FAA06881
:10554000401EA0606068401E606000F065FB284659
:10555000FFF7A3FF60680028EAD138680128F9D96D
:10556000C9F80080BFF34F8FBFF36F8FF2E70000E1
:10557000A01600206800002004ED00E070B51D4674
:10558000049C51B1C4F80020C4E90F010121204658
:1055900000F02EFE84F84C5070BD2460F4E700004B
:1055A0002DE9F05F8846DDE90B94154683469100AE
:1055B0009A460A9EA522206BFAF7A4FF6FF003011A
:1055C000206B01EB8501084420F00707780707D01E
:1055D000502080F31188BFF34F8FBFF36F8FFEE72A
:1055E0000025B8F1000F0FD05FF00000221818F866
:1055F000001082F8341018F8001011B1401C102867
:10560000F4D384F8435001E084F83450382E00D3AA
:105610003726E662C4E91365201D00F0B6FA04F1EE
:10562000180000F0B2FA2461C6F138006462A0618B
:10563000656584F8585052465946384600F05AFA83
:105640002060B9F1000F01D0C9F80040BDE8F09F1B
:1056500030B5114900E011460A688242FBD34B681D
:105660005C18844203D14068184448600846436887
:105670001C18944209D1084C183C2468A24209D055
:1056800052681A4442600A6812680260814200D07F
:10569000086030BD0460F9E7D400002070B5002434
:1056A00041600B4D0061914206D8D11A8269914246
:1056B00006D2011D286907E09A4203D2994201D31C
:1056C000012403E0011DE86800F062FA204670BD85
:1056D000A400002010B5044600F07EFAA06B28B1AB
:1056E0005FF0000400F098FA204610BD0124F9E7AD
:1056F00030B589B03C4D6EE00498002806DADDE94B
:105700000601059A90470498002864DB069C6069AE
:1057100010B1201D00F004FA03A800F0D7F80246EB
:1057200004980A2857D2DFE800F00505052D334A12
:1057300005052D3394F8280040F0010084F8280076
:105740000599A069059B01442046FFF7A7FF68B3B0
:10575000216A2046884794F8280040073BD500205E
:1057600000900598A169002342181946204601F0CF
:1057700043F9D8B9502080F31188BFF34F8FBFF39E
:105780006F8FFEE714F8280F20F00100207022E050
:1057900094F8280040F0010084F828000598A061E2
:1057A00028B1811813462046FFF778FF13E05020F8
:1057B00080F31188BFF34F8FBFF36F8FFEE794F82C
:1057C0002800810703D4204600F03AFA03E020F0D5
:1057D000010084F82800002204A9286800F05CFE7B
:1057E000002889D109B030BDA40000202DE9FC417A
:1057F0000F46054600F0A0FB01A800F067F804463C
:10580000019818B101F066F8BDE8FC81254EAFB1F2
:1058100030690068D0B30027291B3A46306800F091
:10582000BDFA01F057F80028EED11F494FF0805023
:105830000860BFF34F8FBFF36F8FE5E7A542EBD84A
:1058400001F048F8F0682746C068C468201D00F0E1
:1058500067F994F82800410719D5A0692B4641192A
:105860003A462046FFF71AFFA8B10020034601463A
:1058700000902A46204601F0BFF860B9502080F31E
:105880001188BFF34F8FBFF36F8FFEE707E020F063
:10589000010084F82800216A20468847B4E70127E0
:1058A000BAE70000A400002004ED00E00648416BC8
:1058B000096829B1416BC968C96849688162704744
:1058C0004FF0FF31FAE700006800002070B5054690
:1058D00000F01EFF064E0446B068844203D200F07A
:1058E00009F8012000E0002028602046B46070BD67
:1058F000A4000020F8B5194D20E0C068C46806680F
:10590000201D00F00DF9216A2046884794F82800F0
:10591000400713D5A0693044B04206D924616060C5
:10592000211DE86800F034F908E000200346014634
:1059300000903246204601F05FF838B1E86801680F
:105940000029DAD12969C5E90310F8BD502080F398
:105950001188BFF34F8FBFF36F8FFEE7A4000020C5
:1059600008484068401C4FF0500080F3118804D074
:10597000BFF34F8FBFF36F8FFEE7BFF34F8FBFF3C0
:105980006F8FFEE7DC000020074CE068016841B142
:10599000C0680021D0F80000FFF728FFFFF7A8FE3D
:1059A000F3E701210020F7E7A40000202DE9F041F2
:1059B000044600F011F994F9455004F1240609E079
:1059C000606A48B1304600F04DFF08B100F036FA89
:1059D0006D1E6DB2002DF3DC4FF0FF3684F845608C
:1059E00000F01AF900F0F8F894F9445004F11007A7
:1059F00009E0206948B1384600F034FF08B100F0F2
:105A00001DFA6D1E6DB2002DF3DC84F84460BDE814
:105A1000F04100F001B900002DE9F04105460027F2
:105A200000F08AFA324E306808B9FFF751FD70690C
:105A300005424ED1C5B3083568070ED005F0070002
:105A4000C0F108000544680707D0502080F3118892
:105A5000BFF34F8FBFF36F8FFEE72DB370688542A2
:105A600037D82348183001460C6801E020460C4620
:105A70006168A94202D221680029F7D131688C42BD
:105A800027D007682168016060680837411B10292A
:105A90000FD96019420708D0502080F31188BFF356
:105AA0004F8FBFF36F8FFEE713E041606560FFF734
:105AB000CFFD61687068401A7060B268904200D291
:105AC000B060706901430020C4E90001F068401C27
:105AD000F06000F0FFFE780707D0502080F31188B7
